{
  "_format": "hh-sol-artifact-1",
  "contractName": "DaccyChallenge",
  "sourceName": "contracts/DaccyChallenge.sol",
  "abi": [
    {
      "inputs": [],
      "stateMutability": "nonpayable",
      "type": "constructor"
    },
    {
      "anonymous": false,
      "inputs": [
        {
          "indexed": true,
          "internalType": "uint256",
          "name": "challengeId",
          "type": "uint256"
        },
        {
          "indexed": false,
          "internalType": "uint256",
          "name": "entryFee",
          "type": "uint256"
        },
        {
          "indexed": false,
          "internalType": "uint256",
          "name": "reward",
          "type": "uint256"
        },
        {
          "indexed": false,
          "internalType": "uint256",
          "name": "difficulty",
          "type": "uint256"
        }
      ],
      "name": "ChallengeCreated",
      "type": "event"
    },
    {
      "anonymous": false,
      "inputs": [
        {
          "indexed": true,
          "internalType": "uint256",
          "name": "challengeId",
          "type": "uint256"
        },
        {
          "indexed": false,
          "internalType": "address",
          "name": "participant",
          "type": "address"
        }
      ],
      "name": "ChallengeFailed",
      "type": "event"
    },
    {
      "anonymous": false,
      "inputs": [
        {
          "indexed": true,
          "internalType": "uint256",
          "name": "challengeId",
          "type": "uint256"
        },
        {
          "indexed": false,
          "internalType": "address",
          "name": "participant",
          "type": "address"
        }
      ],
      "name": "ChallengeParticipated",
      "type": "event"
    },
    {
      "anonymous": false,
      "inputs": [
        {
          "indexed": true,
          "internalType": "uint256",
          "name": "challengeId",
          "type": "uint256"
        },
        {
          "indexed": false,
          "internalType": "address",
          "name": "solver",
          "type": "address"
        },
        {
          "indexed": false,
          "internalType": "uint256",
          "name": "reward",
          "type": "uint256"
        }
      ],
      "name": "ChallengeSolved",
      "type": "event"
    },
    {
      "stateMutability": "payable",
      "type": "fallback"
    },
    {
      "inputs": [],
      "name": "challengeCount",
      "outputs": [
        {
          "internalType": "uint256",
          "name": "",
          "type": "uint256"
        }
      ],
      "stateMutability": "view",
      "type": "function"
    },
    {
      "inputs": [
        {
          "internalType": "uint256",
          "name": "",
          "type": "uint256"
        }
      ],
      "name": "challenges",
      "outputs": [
        {
          "internalType": "uint256",
          "name": "entryFee",
          "type": "uint256"
        },
        {
          "internalType": "uint256",
          "name": "reward",
          "type": "uint256"
        },
        {
          "internalType": "uint256",
          "name": "difficulty",
          "type": "uint256"
        },
        {
          "internalType": "bool",
          "name": "isActive",
          "type": "bool"
        },
        {
          "internalType": "uint256",
          "name": "lockedAmount",
          "type": "uint256"
        }
      ],
      "stateMutability": "view",
      "type": "function"
    },
    {
      "inputs": [
        {
          "internalType": "uint256",
          "name": "_entryFee",
          "type": "uint256"
        },
        {
          "internalType": "uint256",
          "name": "_reward",
          "type": "uint256"
        },
        {
          "internalType": "uint256",
          "name": "_difficulty",
          "type": "uint256"
        }
      ],
      "name": "createChallenge",
      "outputs": [],
      "stateMutability": "nonpayable",
      "type": "function"
    },
    {
      "inputs": [
        {
          "internalType": "uint256",
          "name": "_challengeId",
          "type": "uint256"
        }
      ],
      "name": "deactivateChallenge",
      "outputs": [],
      "stateMutability": "nonpayable",
      "type": "function"
    },
    {
      "inputs": [],
      "name": "owner",
      "outputs": [
        {
          "internalType": "address",
          "name": "",
          "type": "address"
        }
      ],
      "stateMutability": "view",
      "type": "function"
    },
    {
      "inputs": [
        {
          "internalType": "uint256",
          "name": "_challengeId",
          "type": "uint256"
        }
      ],
      "name": "participate",
      "outputs": [],
      "stateMutability": "payable",
      "type": "function"
    },
    {
      "inputs": [
        {
          "internalType": "uint256",
          "name": "_challengeId",
          "type": "uint256"
        },
        {
          "internalType": "bool",
          "name": "_isCorrect",
          "type": "bool"
        }
      ],
      "name": "submitSolution",
      "outputs": [],
      "stateMutability": "nonpayable",
      "type": "function"
    },
    {
      "inputs": [],
      "name": "withdrawLockedAmount",
      "outputs": [],
      "stateMutability": "nonpayable",
      "type": "function"
    },
    {
      "stateMutability": "payable",
      "type": "receive"
    }
  ],
  "bytecode": "0x6080604052348015600f57600080fd5b50336000806101000a81548173ffffffffffffffffffffffffffffffffffffffff021916908373ffffffffffffffffffffffffffffffffffffffff1602179055506112038061005f6000396000f3fe60806040526004361061007f5760003560e01c80638da5cb5b1161004e5780638da5cb5b146101195780638f1d377614610144578063a2f0572514610185578063d726f319146101b057610080565b80634fcc2c881461008257806351d2f246146100ab578063845c9306146100d457806389fc3807146100f057610080565b5b005b34801561008e57600080fd5b506100a960048036038101906100a49190610a85565b6101c7565b005b3480156100b757600080fd5b506100d260048036038101906100cd9190610ab2565b610287565b005b6100ee60048036038101906100e99190610a85565b610455565b005b3480156100fc57600080fd5b5061011760048036038101906101129190610b3d565b610643565b005b34801561012557600080fd5b5061012e61089d565b60405161013b9190610bbe565b60405180910390f35b34801561015057600080fd5b5061016b60048036038101906101669190610a85565b6108c1565b60405161017c959493929190610bf7565b60405180910390f35b34801561019157600080fd5b5061019a610904565b6040516101a79190610c4a565b60405180910390f35b3480156101bc57600080fd5b506101c561090a565b005b60008054906101000a900473ffffffffffffffffffffffffffffffffffffffff1673ffffffffffffffffffffffffffffffffffffffff163373ffffffffffffffffffffffffffffffffffffffff1614610255576040517f08c379a000000000000000000000000000000000000000000000000000000000815260040161024c90610ce8565b60405180910390fd5b60006001600083815260200190815260200160002060030160006101000a81548160ff02191690831515021790555050565b60008054906101000a900473ffffffffffffffffffffffffffffffffffffffff1673ffffffffffffffffffffffffffffffffffffffff163373ffffffffffffffffffffffffffffffffffffffff1614610315576040517f08c379a000000000000000000000000000000000000000000000000000000000815260040161030c90610ce8565b60405180910390fd5b60018110158015610327575060038111155b610366576040517f08c379a000000000000000000000000000000000000000000000000000000000815260040161035d90610d54565b60405180910390fd5b8282116103a8576040517f08c379a000000000000000000000000000000000000000000000000000000000815260040161039f90610de6565b60405180910390fd5b600260008154809291906103bb90610e35565b91905055506000600160006002548152602001908152602001600020905083816000018190555082816001018190555081816002018190555060018160030160006101000a81548160ff0219169083151502179055506002547f71444deea443abe40c561182ab0dae2411f0332e97f2632843873f3e17f4b7f685858560405161044793929190610e7d565b60405180910390a250505050565b60006001600083815260200190815260200160002090508060030160009054906101000a900460ff166104bd576040517f08c379a00000000000000000000000000000000000000000000000000000000081526004016104b490610f00565b60405180910390fd5b80600001543414610503576040517f08c379a00000000000000000000000000000000000000000000000000000000081526004016104fa90610f6c565b60405180910390fd5b8060040160003373ffffffffffffffffffffffffffffffffffffffff1673ffffffffffffffffffffffffffffffffffffffff16815260200190815260200160002060009054906101000a900460ff1615610592576040517f08c379a000000000000000000000000000000000000000000000000000000000815260040161058990610fd8565b60405180910390fd5b60018160040160003373ffffffffffffffffffffffffffffffffffffffff1673ffffffffffffffffffffffffffffffffffffffff16815260200190815260200160002060006101000a81548160ff021916908315150217905550348160060160008282546106009190610ff8565b92505081905550817f5566b34ac6656d5f2d5e85c026fa44ba79a57824b72414dfd5d86877b42ee127336040516106379190610bbe565b60405180910390a25050565b60006001600084815260200190815260200160002090508060040160003373ffffffffffffffffffffffffffffffffffffffff1673ffffffffffffffffffffffffffffffffffffffff16815260200190815260200160002060009054906101000a900460ff166106e8576040517f08c379a00000000000000000000000000000000000000000000000000000000081526004016106df90611078565b60405180910390fd5b811561084057806001015481600601541015610739576040517f08c379a0000000000000000000000000000000000000000000000000000000008152600401610730906110e4565b60405180910390fd5b60018160050160003373ffffffffffffffffffffffffffffffffffffffff1673ffffffffffffffffffffffffffffffffffffffff16815260200190815260200160002060006101000a81548160ff02191690831515021790555080600101548160060160008282546107ab9190611104565b925050819055503373ffffffffffffffffffffffffffffffffffffffff166108fc82600101549081150290604051600060405180830381858888f193505050501580156107fc573d6000803e3d6000fd5b50827fec5fedc172d29053dca0966115cec0fd3d8aa33da7ae6864d48bc027cd4546cf338360010154604051610833929190611138565b60405180910390a2610898565b80600001548160060160008282546108589190610ff8565b92505081905550827f61dcb7fa860e7e38e91b49276d6bfba58f1d766da616d851c2e14af7b37701443360405161088f9190610bbe565b60405180910390a25b505050565b60008054906101000a900473ffffffffffffffffffffffffffffffffffffffff1681565b60016020528060005260406000206000915090508060000154908060010154908060020154908060030160009054906101000a900460ff16908060060154905085565b60025481565b60008054906101000a900473ffffffffffffffffffffffffffffffffffffffff1673ffffffffffffffffffffffffffffffffffffffff163373ffffffffffffffffffffffffffffffffffffffff1614610998576040517f08c379a000000000000000000000000000000000000000000000000000000000815260040161098f90610ce8565b60405180910390fd5b6000479050600081116109e0576040517f08c379a00000000000000000000000000000000000000000000000000000000081526004016109d7906111ad565b60405180910390fd5b60008054906101000a900473ffffffffffffffffffffffffffffffffffffffff1673ffffffffffffffffffffffffffffffffffffffff166108fc829081150290604051600060405180830381858888f19350505050158015610a46573d6000803e3d6000fd5b5050565b600080fd5b6000819050919050565b610a6281610a4f565b8114610a6d57600080fd5b50565b600081359050610a7f81610a59565b92915050565b600060208284031215610a9b57610a9a610a4a565b5b6000610aa984828501610a70565b91505092915050565b600080600060608486031215610acb57610aca610a4a565b5b6000610ad986828701610a70565b9350506020610aea86828701610a70565b9250506040610afb86828701610a70565b9150509250925092565b60008115159050919050565b610b1a81610b05565b8114610b2557600080fd5b50565b600081359050610b3781610b11565b92915050565b60008060408385031215610b5457610b53610a4a565b5b6000610b6285828601610a70565b9250506020610b7385828601610b28565b9150509250929050565b600073ffffffffffffffffffffffffffffffffffffffff82169050919050565b6000610ba882610b7d565b9050919050565b610bb881610b9d565b82525050565b6000602082019050610bd36000830184610baf565b92915050565b610be281610a4f565b82525050565b610bf181610b05565b82525050565b600060a082019050610c0c6000830188610bd9565b610c196020830187610bd9565b610c266040830186610bd9565b610c336060830185610be8565b610c406080830184610bd9565b9695505050505050565b6000602082019050610c5f6000830184610bd9565b92915050565b600082825260208201905092915050565b7f4f6e6c79206f776e65722063616e2063616c6c20746869732066756e6374696f60008201527f6e00000000000000000000000000000000000000000000000000000000000000602082015250565b6000610cd2602183610c65565b9150610cdd82610c76565b604082019050919050565b60006020820190508181036000830152610d0181610cc5565b9050919050565b7f446966666963756c7479206d75737420626520312c20322c206f722033000000600082015250565b6000610d3e601d83610c65565b9150610d4982610d08565b602082019050919050565b60006020820190508181036000830152610d6d81610d31565b9050919050565b7f526577617264206d7573742062652067726561746572207468616e20656e747260008201527f7920666565000000000000000000000000000000000000000000000000000000602082015250565b6000610dd0602583610c65565b9150610ddb82610d74565b604082019050919050565b60006020820190508181036000830152610dff81610dc3565b9050919050565b7f4e487b7100000000000000000000000000000000000000000000000000000000600052601160045260246000fd5b6000610e4082610a4f565b91507fffffffffffffffffffffffffffffffffffffffffffffffffffffffffffffffff8203610e7257610e71610e06565b5b600182019050919050565b6000606082019050610e926000830186610bd9565b610e9f6020830185610bd9565b610eac6040830184610bd9565b949350505050565b7f4368616c6c656e6765206973206e6f7420616374697665000000000000000000600082015250565b6000610eea601783610c65565b9150610ef582610eb4565b602082019050919050565b60006020820190508181036000830152610f1981610edd565b9050919050565b7f496e636f727265637420656e7472792066656500000000000000000000000000600082015250565b6000610f56601383610c65565b9150610f6182610f20565b602082019050919050565b60006020820190508181036000830152610f8581610f49565b9050919050565b7f416c72656164792070617274696369706174696e670000000000000000000000600082015250565b6000610fc2601583610c65565b9150610fcd82610f8c565b602082019050919050565b60006020820190508181036000830152610ff181610fb5565b9050919050565b600061100382610a4f565b915061100e83610a4f565b925082820190508082111561102657611025610e06565b5b92915050565b7f4e6f742061207061727469636970616e74000000000000000000000000000000600082015250565b6000611062601183610c65565b915061106d8261102c565b602082019050919050565b6000602082019050818103600083015261109181611055565b9050919050565b7f496e73756666696369656e742066756e647320666f7220726577617264000000600082015250565b60006110ce601d83610c65565b91506110d982611098565b602082019050919050565b600060208201905081810360008301526110fd816110c1565b9050919050565b600061110f82610a4f565b915061111a83610a4f565b925082820390508181111561113257611131610e06565b5b92915050565b600060408201905061114d6000830185610baf565b61115a6020830184610bd9565b9392505050565b7f4e6f2066756e647320746f207769746864726177000000000000000000000000600082015250565b6000611197601483610c65565b91506111a282611161565b602082019050919050565b600060208201905081810360008301526111c68161118a565b905091905056fea26469706673582212200de1c312c7599f46dd9a238a5b81145e73cbde5134365de2dd5d26e48b27efc364736f6c634300081b0033",
  "linkReferences": {},
  "deployedLinkReferences": {}
}